{
  "_format": "hh-sol-artifact-1",
  "contractName": "Signer",
  "sourceName": "contracts/Signer.sol",
  "abi": [
    {
      "anonymous": false,
      "inputs": [
        {
          "indexed": true,
          "internalType": "address",
          "name": "previousOwner",
          "type": "address"
        },
        {
          "indexed": true,
          "internalType": "address",
          "name": "newOwner",
          "type": "address"
        }
      ],
      "name": "OwnershipTransferred",
      "type": "event"
    },
    {
      "anonymous": false,
      "inputs": [
        {
          "indexed": false,
          "internalType": "address",
          "name": "owner",
          "type": "address"
        },
        {
          "indexed": false,
          "internalType": "string",
          "name": "fileHash",
          "type": "string"
        },
        {
          "indexed": false,
          "internalType": "uint256",
          "name": "validTo",
          "type": "uint256"
        }
      ],
      "name": "createFile",
      "type": "event"
    },
    {
      "anonymous": false,
      "inputs": [
        {
          "indexed": false,
          "internalType": "address",
          "name": "owner",
          "type": "address"
        },
        {
          "indexed": false,
          "internalType": "uint256",
          "name": "timestamp",
          "type": "uint256"
        }
      ],
      "name": "userVerification",
      "type": "event"
    },
    {
      "anonymous": false,
      "inputs": [
        {
          "indexed": false,
          "internalType": "address",
          "name": "owner",
          "type": "address"
        },
        {
          "indexed": false,
          "internalType": "uint256",
          "name": "timestamp",
          "type": "uint256"
        }
      ],
      "name": "userVerificationRequest",
      "type": "event"
    },
    {
      "inputs": [
        {
          "internalType": "string",
          "name": "hash",
          "type": "string"
        }
      ],
      "name": "getInformation",
      "outputs": [
        {
          "internalType": "address",
          "name": "",
          "type": "address"
        },
        {
          "internalType": "string",
          "name": "",
          "type": "string"
        },
        {
          "internalType": "string",
          "name": "",
          "type": "string"
        },
        {
          "internalType": "uint256",
          "name": "",
          "type": "uint256"
        },
        {
          "internalType": "uint256",
          "name": "",
          "type": "uint256"
        },
        {
          "internalType": "uint256",
          "name": "",
          "type": "uint256"
        },
        {
          "internalType": "bool",
          "name": "",
          "type": "bool"
        }
      ],
      "stateMutability": "view",
      "type": "function"
    },
    {
      "inputs": [],
      "name": "owner",
      "outputs": [
        {
          "internalType": "address",
          "name": "",
          "type": "address"
        }
      ],
      "stateMutability": "view",
      "type": "function"
    },
    {
      "inputs": [],
      "name": "renounceOwnership",
      "outputs": [],
      "stateMutability": "nonpayable",
      "type": "function"
    },
    {
      "inputs": [
        {
          "internalType": "string",
          "name": "_name",
          "type": "string"
        }
      ],
      "name": "requestVerification",
      "outputs": [],
      "stateMutability": "nonpayable",
      "type": "function"
    },
    {
      "inputs": [
        {
          "internalType": "address",
          "name": "newOwner",
          "type": "address"
        }
      ],
      "name": "transferOwnership",
      "outputs": [],
      "stateMutability": "nonpayable",
      "type": "function"
    },
    {
      "inputs": [
        {
          "internalType": "string",
          "name": "_promotion",
          "type": "string"
        },
        {
          "internalType": "string",
          "name": "_fileHash",
          "type": "string"
        },
        {
          "internalType": "uint256",
          "name": "_validFrom",
          "type": "uint256"
        },
        {
          "internalType": "uint256",
          "name": "_validTo",
          "type": "uint256"
        }
      ],
      "name": "uploadFile",
      "outputs": [],
      "stateMutability": "nonpayable",
      "type": "function"
    },
    {
      "inputs": [
        {
          "internalType": "string",
          "name": "",
          "type": "string"
        }
      ],
      "name": "uploads",
      "outputs": [
        {
          "internalType": "address",
          "name": "owner",
          "type": "address"
        },
        {
          "internalType": "string",
          "name": "promotion",
          "type": "string"
        },
        {
          "internalType": "string",
          "name": "fileHash",
          "type": "string"
        },
        {
          "internalType": "uint256",
          "name": "validFrom",
          "type": "uint256"
        },
        {
          "internalType": "uint256",
          "name": "validTo",
          "type": "uint256"
        },
        {
          "internalType": "uint256",
          "name": "timestamp",
          "type": "uint256"
        },
        {
          "internalType": "bool",
          "name": "valid",
          "type": "bool"
        }
      ],
      "stateMutability": "view",
      "type": "function"
    },
    {
      "inputs": [
        {
          "internalType": "address",
          "name": "",
          "type": "address"
        }
      ],
      "name": "verified",
      "outputs": [
        {
          "internalType": "address",
          "name": "owner",
          "type": "address"
        },
        {
          "internalType": "string",
          "name": "name",
          "type": "string"
        },
        {
          "internalType": "bool",
          "name": "valid",
          "type": "bool"
        },
        {
          "internalType": "bool",
          "name": "requested",
          "type": "bool"
        }
      ],
      "stateMutability": "view",
      "type": "function"
    },
    {
      "inputs": [
        {
          "internalType": "address",
          "name": "_owner",
          "type": "address"
        }
      ],
      "name": "verify",
      "outputs": [],
      "stateMutability": "nonpayable",
      "type": "function"
    }
  ],
  "bytecode": "0x608060405234801561001057600080fd5b50600080546001600160a01b031916339081178255604051909182917f8be0079c531659141344cd1fd0a4f28419497f9722a3daafe3b4186f6b6457e0908290a350610f55806100616000396000f3fe608060405234801561001057600080fd5b50600436106100935760003560e01c80638da5cb5b116100665780638da5cb5b146100f457806394e5abb01461010f578063d005be7814610135578063f2fde38b14610148578063f9f482a41461015b57600080fd5b80630db065f41461009857806363a9c3d7146100c45780636cbff42a146100d9578063715018a6146100ec575b600080fd5b6100ab6100a6366004610c78565b61016e565b6040516100bb9493929190610d9a565b60405180910390f35b6100d76100d2366004610c78565b610230565b005b6100d76100e7366004610ca6565b61039c565b6100d76104d1565b6000546040516001600160a01b0390911681526020016100bb565b61012261011d366004610ca6565b610545565b6040516100bb9796959493929190610dd6565b6100d7610143366004610ce1565b6106a9565b6100d7610156366004610c78565b61088c565b610122610169366004610ca6565b610976565b6001602081905260009182526040909120805491810180546001600160a01b039093169261019b90610ece565b80601f01602080910402602001604051908101604052809291908181526020018280546101c790610ece565b80156102145780601f106101e957610100808354040283529160200191610214565b820191906000526020600020905b8154815290600101906020018083116101f757829003601f168201915b5050506002909301549192505060ff8082169161010090041684565b6000546001600160a01b031633146102635760405162461bcd60e51b815260040161025a90610e69565b60405180910390fd5b6001600160a01b03811660009081526001602052604090206002015460ff16156102c95760405162461bcd60e51b815260206004820152601760248201527630b63932b0b23c9030903b32b934b334b2b2103ab9b2b960491b604482015260640161025a565b6001600160a01b038116600090815260016020526040902060020154610100900460ff166103395760405162461bcd60e51b815260206004820152601760248201527f757365722068617665206e6f7420726571756573746564000000000000000000604482015260640161025a565b6001600160a01b038116600081815260016020818152604092839020600201805460ff1916909217909155815192835242908301527fcd4743f3b4972f83e8ca1945b40bb063d9c3b5851ed38b3bfba9d1ce211ebc73910160405180910390a150565b3360009081526001602052604090206002015460ff16156103f95760405162461bcd60e51b815260206004820152601760248201527630b63932b0b23c9030903b32b934b334b2b2103ab9b2b960491b604482015260640161025a565b60408051608081018252338082526020808301858152600084860181905260016060860181905293815283835294909420835181546001600160a01b0319166001600160a01b039091161781559351805193948594909361045f93908501920190610b58565b50604082810151600292909201805460609094015161ffff1990941692151561ff001916929092176101009315159390930292909217905580513381524260208201527fb6797370bceb491f2ca916b8d2091d8e2fb376e16845c60f3077445fd31225e6910160405180910390a15050565b6000546001600160a01b031633146104fb5760405162461bcd60e51b815260040161025a90610e69565b600080546040516001600160a01b03909116907f8be0079c531659141344cd1fd0a4f28419497f9722a3daafe3b4186f6b6457e0908390a3600080546001600160a01b0319169055565b8051602081830181018051600282529282019190930120915280546001820180546001600160a01b03909216929161057c90610ece565b80601f01602080910402602001604051908101604052809291908181526020018280546105a890610ece565b80156105f55780601f106105ca576101008083540402835291602001916105f5565b820191906000526020600020905b8154815290600101906020018083116105d857829003601f168201915b50505050509080600201805461060a90610ece565b80601f016020809104026020016040519081016040528092919081815260200182805461063690610ece565b80156106835780601f1061065857610100808354040283529160200191610683565b820191906000526020600020905b81548152906001019060200180831161066657829003601f168201915b505050506003830154600484015460058501546006909501549394919390925060ff1687565b3360009081526001602052604090206002015460ff166107015760405162461bcd60e51b81526020600482015260136024820152722737ba1030903b32b934b334b2b2103ab9b2b960691b604482015260640161025a565b6002836040516107119190610d7e565b9081526040519081900360200190206006015460ff16156107675760405162461bcd60e51b815260206004820152601060248201526f105b1c9958591e481d5c1b1bd859195960821b604482015260640161025a565b6040805160e0810182523381526020810186905280820185905260608101849052608081018390524260a0820152600160c0820152905181906002906107ae908790610d7e565b90815260405160209181900382019020825181546001600160a01b0319166001600160a01b0390911617815582820151805191926107f492600185019290910190610b58565b5060408201518051610810916002840191602090910190610b58565b50606082015160038201556080820151600482015560a0820151600582015560c0909101516006909101805460ff19169115159190911790556040517f71edfe28e1d49609400f6305588bd78e714723a6b8a13a9c357b8d27b570cc7f9061087d90339087908690610e35565b60405180910390a15050505050565b6000546001600160a01b031633146108b65760405162461bcd60e51b815260040161025a90610e69565b6001600160a01b03811661091b5760405162461bcd60e51b815260206004820152602660248201527f4f776e61626c653a206e6577206f776e657220697320746865207a65726f206160448201526564647265737360d01b606482015260840161025a565b600080546040516001600160a01b03808516939216917f8be0079c531659141344cd1fd0a4f28419497f9722a3daafe3b4186f6b6457e091a3600080546001600160a01b0319166001600160a01b0392909216919091179055565b600060608060008060008060006002896040516109939190610d7e565b90815260408051918290036020908101832060e0840190925281546001600160a01b03168352600182018054918401916109cc90610ece565b80601f01602080910402602001604051908101604052809291908181526020018280546109f890610ece565b8015610a455780601f10610a1a57610100808354040283529160200191610a45565b820191906000526020600020905b815481529060010190602001808311610a2857829003601f168201915b50505050508152602001600282018054610a5e90610ece565b80601f0160208091040260200160405190810160405280929190818152602001828054610a8a90610ece565b8015610ad75780601f10610aac57610100808354040283529160200191610ad7565b820191906000526020600020905b815481529060010190602001808311610aba57829003601f168201915b505050505081526020016003820154815260200160048201548152602001600582015481526020016006820160009054906101000a900460ff1615151515815250509050806000015181602001518260400151836060015184608001518560a001518660c00151975097509750975097509750975050919395979092949650565b828054610b6490610ece565b90600052602060002090601f016020900481019282610b865760008555610bcc565b82601f10610b9f57805160ff1916838001178555610bcc565b82800160010185558215610bcc579182015b82811115610bcc578251825591602001919060010190610bb1565b50610bd8929150610bdc565b5090565b5b80821115610bd85760008155600101610bdd565b600082601f830112610c01578081fd5b813567ffffffffffffffff80821115610c1c57610c1c610f09565b604051601f8301601f19908116603f01168101908282118183101715610c4457610c44610f09565b81604052838152866020858801011115610c5c578485fd5b8360208701602083013792830160200193909352509392505050565b600060208284031215610c89578081fd5b81356001600160a01b0381168114610c9f578182fd5b9392505050565b600060208284031215610cb7578081fd5b813567ffffffffffffffff811115610ccd578182fd5b610cd984828501610bf1565b949350505050565b60008060008060808587031215610cf6578283fd5b843567ffffffffffffffff80821115610d0d578485fd5b610d1988838901610bf1565b95506020870135915080821115610d2e578485fd5b50610d3b87828801610bf1565b949794965050505060408301359260600135919050565b60008151808452610d6a816020860160208601610e9e565b601f01601f19169290920160200192915050565b60008251610d90818460208701610e9e565b9190910192915050565b6001600160a01b0385168152608060208201819052600090610dbe90830186610d52565b93151560408301525090151560609091015292915050565b6001600160a01b038816815260e060208201819052600090610dfa90830189610d52565b8281036040840152610e0c8189610d52565b9150508560608301528460808301528360a083015282151560c083015298975050505050505050565b6001600160a01b0384168152606060208201819052600090610e5990830185610d52565b9050826040830152949350505050565b6020808252818101527f4f776e61626c653a2063616c6c6572206973206e6f7420746865206f776e6572604082015260600190565b60005b83811015610eb9578181015183820152602001610ea1565b83811115610ec8576000848401525b50505050565b600181811c90821680610ee257607f821691505b60208210811415610f0357634e487b7160e01b600052602260045260246000fd5b50919050565b634e487b7160e01b600052604160045260246000fdfea2646970667358221220a5e0ef8432d869a73d8d6b28ee73f8030d293d8964829592f7d8f8161a20200464736f6c63430008040033",
  "linkReferences": {},
  "deployedLinkReferences": {}
}